{
  "_format": "hh-sol-artifact-1",
  "contractName": "SpotASong",
  "sourceName": "contracts/SpotASong.sol",
  "abi": [
    {
      "inputs": [],
      "stateMutability": "payable",
      "type": "constructor"
    },
    {
      "anonymous": false,
      "inputs": [
        {
          "indexed": true,
          "internalType": "address",
          "name": "from",
          "type": "address"
        },
        {
          "indexed": false,
          "internalType": "uint256",
          "name": "timestamp",
          "type": "uint256"
        },
        {
          "indexed": false,
          "internalType": "string",
          "name": "message",
          "type": "string"
        },
        {
          "indexed": false,
          "internalType": "string",
          "name": "artist",
          "type": "string"
        },
        {
          "indexed": false,
          "internalType": "string",
          "name": "album",
          "type": "string"
        },
        {
          "indexed": false,
          "internalType": "string",
          "name": "name",
          "type": "string"
        },
        {
          "indexed": false,
          "internalType": "string",
          "name": "url",
          "type": "string"
        }
      ],
      "name": "NewRecommendation",
      "type": "event"
    },
    {
      "anonymous": false,
      "inputs": [
        {
          "indexed": true,
          "internalType": "address",
          "name": "previousOwner",
          "type": "address"
        },
        {
          "indexed": true,
          "internalType": "address",
          "name": "newOwner",
          "type": "address"
        }
      ],
      "name": "OwnershipTransferred",
      "type": "event"
    },
    {
      "inputs": [
        {
          "internalType": "string",
          "name": "_message",
          "type": "string"
        },
        {
          "internalType": "string",
          "name": "_artist",
          "type": "string"
        },
        {
          "internalType": "string",
          "name": "_album",
          "type": "string"
        },
        {
          "internalType": "string",
          "name": "_name",
          "type": "string"
        },
        {
          "internalType": "string",
          "name": "_url",
          "type": "string"
        }
      ],
      "name": "addRecommendation",
      "outputs": [],
      "stateMutability": "nonpayable",
      "type": "function"
    },
    {
      "inputs": [],
      "name": "getAllRecommendations",
      "outputs": [
        {
          "components": [
            {
              "internalType": "address",
              "name": "user",
              "type": "address"
            },
            {
              "internalType": "string",
              "name": "message",
              "type": "string"
            },
            {
              "internalType": "string",
              "name": "artist",
              "type": "string"
            },
            {
              "internalType": "string",
              "name": "album",
              "type": "string"
            },
            {
              "internalType": "string",
              "name": "name",
              "type": "string"
            },
            {
              "internalType": "string",
              "name": "url",
              "type": "string"
            },
            {
              "internalType": "uint256",
              "name": "timestamp",
              "type": "uint256"
            }
          ],
          "internalType": "struct SpotASong.Recommendation[]",
          "name": "",
          "type": "tuple[]"
        }
      ],
      "stateMutability": "view",
      "type": "function"
    },
    {
      "inputs": [],
      "name": "getBalance",
      "outputs": [
        {
          "internalType": "uint256",
          "name": "",
          "type": "uint256"
        }
      ],
      "stateMutability": "view",
      "type": "function"
    },
    {
      "inputs": [],
      "name": "getRecommendationCountByUser",
      "outputs": [
        {
          "internalType": "uint256",
          "name": "",
          "type": "uint256"
        }
      ],
      "stateMutability": "view",
      "type": "function"
    },
    {
      "inputs": [
        {
          "internalType": "address",
          "name": "_user",
          "type": "address"
        }
      ],
      "name": "getRecommendationsByOwner",
      "outputs": [
        {
          "components": [
            {
              "internalType": "address",
              "name": "user",
              "type": "address"
            },
            {
              "internalType": "string",
              "name": "message",
              "type": "string"
            },
            {
              "internalType": "string",
              "name": "artist",
              "type": "string"
            },
            {
              "internalType": "string",
              "name": "album",
              "type": "string"
            },
            {
              "internalType": "string",
              "name": "name",
              "type": "string"
            },
            {
              "internalType": "string",
              "name": "url",
              "type": "string"
            },
            {
              "internalType": "uint256",
              "name": "timestamp",
              "type": "uint256"
            }
          ],
          "internalType": "struct SpotASong.Recommendation[]",
          "name": "",
          "type": "tuple[]"
        }
      ],
      "stateMutability": "view",
      "type": "function"
    },
    {
      "inputs": [],
      "name": "getTotalRecommendationCount",
      "outputs": [
        {
          "internalType": "uint256",
          "name": "",
          "type": "uint256"
        }
      ],
      "stateMutability": "view",
      "type": "function"
    },
    {
      "inputs": [],
      "name": "owner",
      "outputs": [
        {
          "internalType": "address",
          "name": "",
          "type": "address"
        }
      ],
      "stateMutability": "view",
      "type": "function"
    },
    {
      "inputs": [
        {
          "internalType": "uint256",
          "name": "",
          "type": "uint256"
        }
      ],
      "name": "recommendations",
      "outputs": [
        {
          "internalType": "address",
          "name": "user",
          "type": "address"
        },
        {
          "internalType": "string",
          "name": "message",
          "type": "string"
        },
        {
          "internalType": "string",
          "name": "artist",
          "type": "string"
        },
        {
          "internalType": "string",
          "name": "album",
          "type": "string"
        },
        {
          "internalType": "string",
          "name": "name",
          "type": "string"
        },
        {
          "internalType": "string",
          "name": "url",
          "type": "string"
        },
        {
          "internalType": "uint256",
          "name": "timestamp",
          "type": "uint256"
        }
      ],
      "stateMutability": "view",
      "type": "function"
    },
    {
      "inputs": [],
      "name": "renounceOwnership",
      "outputs": [],
      "stateMutability": "nonpayable",
      "type": "function"
    },
    {
      "inputs": [
        {
          "internalType": "address payable",
          "name": "_to",
          "type": "address"
        }
      ],
      "name": "sendViaCall",
      "outputs": [],
      "stateMutability": "payable",
      "type": "function"
    },
    {
      "inputs": [
        {
          "internalType": "address",
          "name": "newOwner",
          "type": "address"
        }
      ],
      "name": "transferOwnership",
      "outputs": [],
      "stateMutability": "nonpayable",
      "type": "function"
    },
    {
      "stateMutability": "payable",
      "type": "receive"
    }
  ],
  "bytecode": "0x60806040526028600755600060085566038d7ea4c6800060095561003561002a61003a60201b60201c565b61004260201b60201c565b610106565b600033905090565b60008060009054906101000a900473ffffffffffffffffffffffffffffffffffffffff169050816000806101000a81548173ffffffffffffffffffffffffffffffffffffffff021916908373ffffffffffffffffffffffffffffffffffffffff1602179055508173ffffffffffffffffffffffffffffffffffffffff168173ffffffffffffffffffffffffffffffffffffffff167f8be0079c531659141344cd1fd0a4f28419497f9722a3daafe3b4186f6b6457e060405160405180910390a35050565b6126f580620001166000396000f3fe6080604052600436106100a05760003560e01c80638da5cb5b116100645780638da5cb5b14610178578063a4fe5f4a146101a3578063a6e0dbe3146101cc578063e843256c146101f7578063f2fde38b14610234578063f803601c1461025d576100a7565b806312065fe0146100ac5780631a16c159146100d7578063715018a6146101025780637f73e19d14610119578063830c29ae1461015c576100a7565b366100a757005b600080fd5b3480156100b857600080fd5b506100c1610288565b6040516100ce9190612050565b60405180910390f35b3480156100e357600080fd5b506100ec610290565b6040516100f99190611f4e565b60405180910390f35b34801561010e57600080fd5b50610117610629565b005b34801561012557600080fd5b50610140600480360381019061013b9190611aa9565b6106b1565b6040516101539796959493929190611ebc565b60405180910390f35b61017660048036038101906101719190611991565b6109cb565b005b34801561018457600080fd5b5061018d610af7565b60405161019a9190611ea1565b60405180910390f35b3480156101af57600080fd5b506101ca60048036038101906101c591906119ba565b610b20565b005b3480156101d857600080fd5b506101e1611025565b6040516101ee9190612050565b60405180910390f35b34801561020357600080fd5b5061021e60048036038101906102199190611968565b61106c565b60405161022b9190611f4e565b60405180910390f35b34801561024057600080fd5b5061025b60048036038101906102569190611968565b6115a1565b005b34801561026957600080fd5b50610272611699565b60405161027f9190612050565b60405180910390f35b600047905090565b60606006805480602002602001604051908101604052809291908181526020016000905b8282101561062057838290600052602060002090600702016040518060e00160405290816000820160009054906101000a900473ffffffffffffffffffffffffffffffffffffffff1673ffffffffffffffffffffffffffffffffffffffff1673ffffffffffffffffffffffffffffffffffffffff16815260200160018201805461033d906122db565b80601f0160208091040260200160405190810160405280929190818152602001828054610369906122db565b80156103b65780601f1061038b576101008083540402835291602001916103b6565b820191906000526020600020905b81548152906001019060200180831161039957829003601f168201915b505050505081526020016002820180546103cf906122db565b80601f01602080910402602001604051908101604052809291908181526020018280546103fb906122db565b80156104485780601f1061041d57610100808354040283529160200191610448565b820191906000526020600020905b81548152906001019060200180831161042b57829003601f168201915b50505050508152602001600382018054610461906122db565b80601f016020809104026020016040519081016040528092919081815260200182805461048d906122db565b80156104da5780601f106104af576101008083540402835291602001916104da565b820191906000526020600020905b8154815290600101906020018083116104bd57829003601f168201915b505050505081526020016004820180546104f3906122db565b80601f016020809104026020016040519081016040528092919081815260200182805461051f906122db565b801561056c5780601f106105415761010080835404028352916020019161056c565b820191906000526020600020905b81548152906001019060200180831161054f57829003601f168201915b50505050508152602001600582018054610585906122db565b80601f01602080910402602001604051908101604052809291908181526020018280546105b1906122db565b80156105fe5780601f106105d3576101008083540402835291602001916105fe565b820191906000526020600020905b8154815290600101906020018083116105e157829003601f168201915b50505050508152602001600682015481525050815260200190600101906102b4565b50505050905090565b6106316116a3565b73ffffffffffffffffffffffffffffffffffffffff1661064f610af7565b73ffffffffffffffffffffffffffffffffffffffff16146106a5576040517f08c379a000000000000000000000000000000000000000000000000000000000815260040161069c90612030565b60405180910390fd5b6106af60006116ab565b565b600681815481106106c157600080fd5b90600052602060002090600702016000915090508060000160009054906101000a900473ffffffffffffffffffffffffffffffffffffffff169080600101805461070a906122db565b80601f0160208091040260200160405190810160405280929190818152602001828054610736906122db565b80156107835780601f1061075857610100808354040283529160200191610783565b820191906000526020600020905b81548152906001019060200180831161076657829003601f168201915b505050505090806002018054610798906122db565b80601f01602080910402602001604051908101604052809291908181526020018280546107c4906122db565b80156108115780601f106107e657610100808354040283529160200191610811565b820191906000526020600020905b8154815290600101906020018083116107f457829003601f168201915b505050505090806003018054610826906122db565b80601f0160208091040260200160405190810160405280929190818152602001828054610852906122db565b801561089f5780601f106108745761010080835404028352916020019161089f565b820191906000526020600020905b81548152906001019060200180831161088257829003601f168201915b5050505050908060040180546108b4906122db565b80601f01602080910402602001604051908101604052809291908181526020018280546108e0906122db565b801561092d5780601f106109025761010080835404028352916020019161092d565b820191906000526020600020905b81548152906001019060200180831161091057829003601f168201915b505050505090806005018054610942906122db565b80601f016020809104026020016040519081016040528092919081815260200182805461096e906122db565b80156109bb5780601f10610990576101008083540402835291602001916109bb565b820191906000526020600020905b81548152906001019060200180831161099e57829003601f168201915b5050505050908060060154905087565b6109d36116a3565b73ffffffffffffffffffffffffffffffffffffffff166109f1610af7565b73ffffffffffffffffffffffffffffffffffffffff1614610a47576040517f08c379a0000000000000000000000000000000000000000000000000000000008152600401610a3e90612030565b60405180910390fd5b60008173ffffffffffffffffffffffffffffffffffffffff1634604051610a6d90611e4f565b60006040518083038185875af1925050503d8060008114610aaa576040519150601f19603f3d011682016040523d82523d6000602084013e610aaf565b606091505b5050905080610af3576040517f08c379a0000000000000000000000000000000000000000000000000000000008152600401610aea90611fd0565b60405180910390fd5b5050565b60008060009054906101000a900473ffffffffffffffffffffffffffffffffffffffff16905090565b60b44281600560003373ffffffffffffffffffffffffffffffffffffffff1673ffffffffffffffffffffffffffffffffffffffff16815260200190815260200160002054610b6e91906121c1565b10610bae576040517f08c379a0000000000000000000000000000000000000000000000000000000008152600401610ba590611f70565b60405180910390fd5b816001600482604051610bc19190611e38565b90815260200160405180910390205410610c10576040517f08c379a0000000000000000000000000000000000000000000000000000000008152600401610c0790612010565b60405180910390fd5b42600560003373ffffffffffffffffffffffffffffffffffffffff1673ffffffffffffffffffffffffffffffffffffffff1681526020019081526020016000208190555060016000815480929190610c679061233e565b9190505550600360003373ffffffffffffffffffffffffffffffffffffffff1673ffffffffffffffffffffffffffffffffffffffff1681526020019081526020016000206000815480929190610cbc9061233e565b9190505550600483604051610cd19190611e38565b90815260200160405180910390206000815480929190610cf09061233e565b919050555060006040518060e001604052803373ffffffffffffffffffffffffffffffffffffffff168152602001898152602001888152602001878152602001868152602001858152602001428152509050600681908060018154018082558091505060019003906000526020600020906007020160009091909190915060008201518160000160006101000a81548173ffffffffffffffffffffffffffffffffffffffff021916908373ffffffffffffffffffffffffffffffffffffffff1602179055506020820151816001019080519060200190610dd19291906117cb565b506040820151816002019080519060200190610dee9291906117cb565b506060820151816003019080519060200190610e0b9291906117cb565b506080820151816004019080519060200190610e289291906117cb565b5060a0820151816005019080519060200190610e459291906117cb565b5060c08201518160060155505033600260006001600680549050610e699190612217565b815260200190815260200160002060006101000a81548173ffffffffffffffffffffffffffffffffffffffff021916908373ffffffffffffffffffffffffffffffffffffffff1602179055506000610ec1606461176f565b9050600754811015610fc257476009541115610f12576040517f08c379a0000000000000000000000000000000000000000000000000000000008152600401610f0990611fb0565b60405180910390fd5b60003373ffffffffffffffffffffffffffffffffffffffff16600954604051610f3a90611e4f565b60006040518083038185875af1925050503d8060008114610f77576040519150601f19603f3d011682016040523d82523d6000602084013e610f7c565b606091505b5050905080610fc0576040517f08c379a0000000000000000000000000000000000000000000000000000000008152600401610fb790611ff0565b60405180910390fd5b505b3373ffffffffffffffffffffffffffffffffffffffff167ff3dbf77b29df4b0a3d8460291243ed468625d31a43392967ef0837f80859f3ed428b8b8b8b8b6040516110129695949392919061206b565b60405180910390a2505050505050505050565b6000600360003373ffffffffffffffffffffffffffffffffffffffff1673ffffffffffffffffffffffffffffffffffffffff16815260200190815260200160002054905090565b60606000600360008473ffffffffffffffffffffffffffffffffffffffff1673ffffffffffffffffffffffffffffffffffffffff1681526020019081526020016000205467ffffffffffffffff8111156110ef577f4e487b7100000000000000000000000000000000000000000000000000000000600052604160045260246000fd5b60405190808252806020026020018201604052801561112857816020015b611115611851565b81526020019060019003908161110d5790505b5090506000805b600680549050811015611596578473ffffffffffffffffffffffffffffffffffffffff166002600083815260200190815260200160002060009054906101000a900473ffffffffffffffffffffffffffffffffffffffff1673ffffffffffffffffffffffffffffffffffffffff16141561158357600681815481106111dd577f4e487b7100000000000000000000000000000000000000000000000000000000600052603260045260246000fd5b90600052602060002090600702016040518060e00160405290816000820160009054906101000a900473ffffffffffffffffffffffffffffffffffffffff1673ffffffffffffffffffffffffffffffffffffffff1673ffffffffffffffffffffffffffffffffffffffff16815260200160018201805461125c906122db565b80601f0160208091040260200160405190810160405280929190818152602001828054611288906122db565b80156112d55780601f106112aa576101008083540402835291602001916112d5565b820191906000526020600020905b8154815290600101906020018083116112b857829003601f168201915b505050505081526020016002820180546112ee906122db565b80601f016020809104026020016040519081016040528092919081815260200182805461131a906122db565b80156113675780601f1061133c57610100808354040283529160200191611367565b820191906000526020600020905b81548152906001019060200180831161134a57829003601f168201915b50505050508152602001600382018054611380906122db565b80601f01602080910402602001604051908101604052809291908181526020018280546113ac906122db565b80156113f95780601f106113ce576101008083540402835291602001916113f9565b820191906000526020600020905b8154815290600101906020018083116113dc57829003601f168201915b50505050508152602001600482018054611412906122db565b80601f016020809104026020016040519081016040528092919081815260200182805461143e906122db565b801561148b5780601f106114605761010080835404028352916020019161148b565b820191906000526020600020905b81548152906001019060200180831161146e57829003601f168201915b505050505081526020016005820180546114a4906122db565b80601f01602080910402602001604051908101604052809291908181526020018280546114d0906122db565b801561151d5780601f106114f25761010080835404028352916020019161151d565b820191906000526020600020905b81548152906001019060200180831161150057829003601f168201915b50505050508152602001600682015481525050838381518110611569577f4e487b7100000000000000000000000000000000000000000000000000000000600052603260045260246000fd5b6020026020010181905250818061157f9061233e565b9250505b808061158e9061233e565b91505061112f565b508192505050919050565b6115a96116a3565b73ffffffffffffffffffffffffffffffffffffffff166115c7610af7565b73ffffffffffffffffffffffffffffffffffffffff161461161d576040517f08c379a000000000000000000000000000000000000000000000000000000000815260040161161490612030565b60405180910390fd5b600073ffffffffffffffffffffffffffffffffffffffff168173ffffffffffffffffffffffffffffffffffffffff16141561168d576040517f08c379a000000000000000000000000000000000000000000000000000000000815260040161168490611f90565b60405180910390fd5b611696816116ab565b50565b6000600154905090565b600033905090565b60008060009054906101000a900473ffffffffffffffffffffffffffffffffffffffff169050816000806101000a81548173ffffffffffffffffffffffffffffffffffffffff021916908373ffffffffffffffffffffffffffffffffffffffff1602179055508173ffffffffffffffffffffffffffffffffffffffff168173ffffffffffffffffffffffffffffffffffffffff167f8be0079c531659141344cd1fd0a4f28419497f9722a3daafe3b4186f6b6457e060405160405180910390a35050565b6000600860008154809291906117849061233e565b91905055508142336008546040516020016117a193929190611e64565b6040516020818303038152906040528051906020012060001c6117c491906123b5565b9050919050565b8280546117d7906122db565b90600052602060002090601f0160209004810192826117f95760008555611840565b82601f1061181257805160ff1916838001178555611840565b82800160010185558215611840579182015b8281111561183f578251825591602001919060010190611824565b5b50905061184d91906118a4565b5090565b6040518060e00160405280600073ffffffffffffffffffffffffffffffffffffffff1681526020016060815260200160608152602001606081526020016060815260200160608152602001600081525090565b5b808211156118bd5760008160009055506001016118a5565b5090565b60006118d46118cf84612114565b6120ef565b9050828152602081018484840111156118ec57600080fd5b6118f7848285612299565b509392505050565b60008135905061190e8161267a565b92915050565b60008135905061192381612691565b92915050565b600082601f83011261193a57600080fd5b813561194a8482602086016118c1565b91505092915050565b600081359050611962816126a8565b92915050565b60006020828403121561197a57600080fd5b6000611988848285016118ff565b91505092915050565b6000602082840312156119a357600080fd5b60006119b184828501611914565b91505092915050565b600080600080600060a086880312156119d257600080fd5b600086013567ffffffffffffffff8111156119ec57600080fd5b6119f888828901611929565b955050602086013567ffffffffffffffff811115611a1557600080fd5b611a2188828901611929565b945050604086013567ffffffffffffffff811115611a3e57600080fd5b611a4a88828901611929565b935050606086013567ffffffffffffffff811115611a6757600080fd5b611a7388828901611929565b925050608086013567ffffffffffffffff811115611a9057600080fd5b611a9c88828901611929565b9150509295509295909350565b600060208284031215611abb57600080fd5b6000611ac984828501611953565b91505092915050565b6000611ade8383611d4b565b905092915050565b611aef8161224b565b82525050565b611afe8161224b565b82525050565b611b15611b108261224b565b612387565b82525050565b6000611b2682612155565b611b308185612178565b935083602082028501611b4285612145565b8060005b85811015611b7e5784840389528151611b5f8582611ad2565b9450611b6a8361216b565b925060208a01995050600181019050611b46565b50829750879550505050505092915050565b6000611b9b82612160565b611ba58185612194565b9350611bb58185602086016122a8565b611bbe816124a2565b840191505092915050565b6000611bd482612160565b611bde81856121a5565b9350611bee8185602086016122a8565b611bf7816124a2565b840191505092915050565b6000611c0d82612160565b611c1781856121b6565b9350611c278185602086016122a8565b80840191505092915050565b6000611c406038836121a5565b9150611c4b826124c0565b604082019050919050565b6000611c636026836121a5565b9150611c6e8261250f565b604082019050919050565b6000611c866034836121a5565b9150611c918261255e565b604082019050919050565b6000611ca96014836121a5565b9150611cb4826125ad565b602082019050919050565b6000611ccc6027836121a5565b9150611cd7826125d6565b604082019050919050565b6000611cef601e836121a5565b9150611cfa82612625565b602082019050919050565b6000611d126020836121a5565b9150611d1d8261264e565b602082019050919050565b6000611d35600083612189565b9150611d4082612677565b600082019050919050565b600060e083016000830151611d636000860182611ae6565b5060208301518482036020860152611d7b8282611b90565b91505060408301518482036040860152611d958282611b90565b91505060608301518482036060860152611daf8282611b90565b91505060808301518482036080860152611dc98282611b90565b91505060a083015184820360a0860152611de38282611b90565b91505060c0830151611df860c0860182611e03565b508091505092915050565b611e0c8161228f565b82525050565b611e1b8161228f565b82525050565b611e32611e2d8261228f565b6123ab565b82525050565b6000611e448284611c02565b915081905092915050565b6000611e5a82611d28565b9150819050919050565b6000611e708286611e21565b602082019150611e808285611b04565b601482019150611e908284611e21565b602082019150819050949350505050565b6000602082019050611eb66000830184611af5565b92915050565b600060e082019050611ed1600083018a611af5565b8181036020830152611ee38189611bc9565b90508181036040830152611ef78188611bc9565b90508181036060830152611f0b8187611bc9565b90508181036080830152611f1f8186611bc9565b905081810360a0830152611f338185611bc9565b9050611f4260c0830184611e12565b98975050505050505050565b60006020820190508181036000830152611f688184611b1b565b905092915050565b60006020820190508181036000830152611f8981611c33565b9050919050565b60006020820190508181036000830152611fa981611c56565b9050919050565b60006020820190508181036000830152611fc981611c79565b9050919050565b60006020820190508181036000830152611fe981611c9c565b9050919050565b6000602082019050818103600083015261200981611cbf565b9050919050565b6000602082019050818103600083015261202981611ce2565b9050919050565b6000602082019050818103600083015261204981611d05565b9050919050565b60006020820190506120656000830184611e12565b92915050565b600060c0820190506120806000830189611e12565b81810360208301526120928188611bc9565b905081810360408301526120a68187611bc9565b905081810360608301526120ba8186611bc9565b905081810360808301526120ce8185611bc9565b905081810360a08301526120e28184611bc9565b9050979650505050505050565b60006120f961210a565b9050612105828261230d565b919050565b6000604051905090565b600067ffffffffffffffff82111561212f5761212e612473565b5b612138826124a2565b9050602081019050919050565b6000819050602082019050919050565b600081519050919050565b600081519050919050565b6000602082019050919050565b600082825260208201905092915050565b600081905092915050565b600082825260208201905092915050565b600082825260208201905092915050565b600081905092915050565b60006121cc8261228f565b91506121d78361228f565b9250827fffffffffffffffffffffffffffffffffffffffffffffffffffffffffffffffff0382111561220c5761220b6123e6565b5b828201905092915050565b60006122228261228f565b915061222d8361228f565b9250828210156122405761223f6123e6565b5b828203905092915050565b60006122568261226f565b9050919050565b60006122688261226f565b9050919050565b600073ffffffffffffffffffffffffffffffffffffffff82169050919050565b6000819050919050565b82818337600083830152505050565b60005b838110156122c65780820151818401526020810190506122ab565b838111156122d5576000848401525b50505050565b600060028204905060018216806122f357607f821691505b6020821081141561230757612306612444565b5b50919050565b612316826124a2565b810181811067ffffffffffffffff8211171561233557612334612473565b5b80604052505050565b60006123498261228f565b91507fffffffffffffffffffffffffffffffffffffffffffffffffffffffffffffffff82141561237c5761237b6123e6565b5b600182019050919050565b600061239282612399565b9050919050565b60006123a4826124b3565b9050919050565b6000819050919050565b60006123c08261228f565b91506123cb8361228f565b9250826123db576123da612415565b5b828206905092915050565b7f4e487b7100000000000000000000000000000000000000000000000000000000600052601160045260246000fd5b7f4e487b7100000000000000000000000000000000000000000000000000000000600052601260045260246000fd5b7f4e487b7100000000000000000000000000000000000000000000000000000000600052602260045260246000fd5b7f4e487b7100000000000000000000000000000000000000000000000000000000600052604160045260246000fd5b6000601f19601f8301169050919050565b60008160601b9050919050565b7f506c65617365207761697420756e74696c20796f752063616e207375626d697460008201527f2061207265636f6d6d656e646174696f6e20616761696e210000000000000000602082015250565b7f4f776e61626c653a206e6577206f776e657220697320746865207a65726f206160008201527f6464726573730000000000000000000000000000000000000000000000000000602082015250565b7f547279696e6720746f207769746864726177206d6f7265206d6f6e657920746860008201527f616e2074686520636f6e7472616374206861732e000000000000000000000000602082015250565b7f4661696c656420746f2073656e64204574686572000000000000000000000000600082015250565b7f4661696c656420746f207769746864726177206d6f6e65792066726f6d20636f60008201527f6e74726163742e00000000000000000000000000000000000000000000000000602082015250565b7f536f6e6720686173206265656e207375626d6974746564206265666f72650000600082015250565b7f4f776e61626c653a2063616c6c6572206973206e6f7420746865206f776e6572600082015250565b50565b6126838161224b565b811461268e57600080fd5b50565b61269a8161225d565b81146126a557600080fd5b50565b6126b18161228f565b81146126bc57600080fd5b5056fea26469706673582212201b77d0cf195d4212eb550f3714327c09c109b209ddb38631e58571659dfc8d2e64736f6c63430008040033",
  "linkReferences": {},
  "deployedLinkReferences": {}
}